:100000000C9464000C948C000C948C000C948C0068
:100010000C948C000C948C000C948C000C948C0030
:100020000C948C000C948C000C948C000C948C0020
:100030000C948C000C948C000C948C000C948C0010
:100040000C94E6040C948C000C941C030C944E034A
:100050000C948C000C948C000C948C000C948C00F0
:100060000C948C000C948C0000000008000201002D
:100070000003040700000000000000000102040863
:100080001020408001020408102001020408102002
:10009000040404040404040402020202020203032E
:1000A00003030303000000002300260029000000D2
:1000B0000000250028002B0000000000240027007D
:1000C0002A008E007E03940011241FBECFEFD8E0DB
:1000D000DEBFCDBF11E0A0E0B1E0E8ECFFE002C080
:1000E00005900D92A633B107D9F721E0A6E3B1E060
:1000F00001C01D92AC3EB207E1F710E0C6ECD0E0C3
:1001000004C02297FE010E949B05C23CD107C9F79B
:100110000E94D7040C94D7070C94000065E271E0AC
:1001200086E391E00C94C00486E391E00C945204C1
:100130000F931F93CF93DF93C9E1D1E00DE011E05E
:100140008881229661E00E943F01F80180810E5F64
:100150001F4F60E00E943F01F1E0C532DF0781F7E9
:1001600066E070E086E391E00E94830448E853E192
:1001700060E070E082E491E00E94170426E040E62F
:1001800059E060E070E082E491E00E94BA0282E40B
:1001900091E0DF91CF911F910F910C943302CF9298
:1001A000DF92EF92FF920F931F93CF93DF9382E43E
:1001B00091E00E94D701079784F126E030E046E005
:1001C00051E060910C0182E491E00E941D0406E080
:1001D00011E089E1E82E81E0F82ECDE0D1E09CE34A
:1001E000C92E91E0D92EF80161918F01F70180812C
:1001F000F2E0EF0EF11C0E947801888122960E94A5
:10020000AE01F60181936F01682F82E491E00E94B4
:100210005502F1E00C301F0731F7DF91CF911F91AC
:100220000F91FF90EF90DF90CF900895833081F091
:1002300028F4813099F08230A1F008958730A9F038
:100240008830B9F08430D1F4809180008F7D03C074
:10025000809180008F7780938000089584B58F7798
:1002600002C084B58F7D84BD08958091B0008F77E2
:1002700003C08091B0008F7D8093B0000895CF932C
:10028000DF9390E0FC01E458FF4F2491FC01E0571C
:10029000FF4F8491882349F190E0880F991FFC015A
:1002A000E854FF4FA591B49182559F4FFC01C59131
:1002B000D4919FB7611108C0F8948C912095822346
:1002C0008C93888182230AC0623051F4F8948C9117
:1002D000322F309583238C938881822B888304C0AE
:1002E000F8948C91822B8C939FBFDF91CF910895CE
:1002F0000F931F93CF93DF931F92CDB7DEB7282FB5
:1003000030E0F901E859FF4F8491F901E458FF4FBB
:100310001491F901E057FF4F04910023C9F088239D
:1003200021F069830E9416016981E02FF0E0EE0F51
:10033000FF1FE255FF4FA591B4919FB7F8948C91A0
:10034000611103C01095812301C0812B8C939FBF45
:100350000F90DF91CF911F910F910895CF93DF936D
:10036000282F30E0F901E859FF4F8491F901E45852
:10037000FF4FD491F901E057FF4FC491CC2391F086
:1003800081110E941601EC2FF0E0EE0FFF1FEC55DB
:10039000FF4FA591B4912C912D2381E090E021F4A1
:1003A00080E002C080E090E0DF91CF910895FC01F1
:1003B000818D228D90E0805C9F4F821B91098F730D
:1003C00099270895FC01918D828D981731F0828DC7
:1003D000E80FF11D858D90E008958FEF9FEF089550
:1003E000FC01918D828D981761F0828DDF01A80F3D
:1003F000B11D5D968C91928D9F5F9F73928F90E05F
:1004000008958FEF9FEF089584E793E0892B49F0DB
:1004100080E090E0892B29F00E94740381110C94F4
:1004200000000895FC01848DDF01A80FB11DA35ABF
:10043000BF4F2C91848D90E001968F739927848F04
:10044000A689B7892C93A089B1898C9180648C93FB
:10045000938D848D981306C00288F389E02D8081E6
:100460008F7D80830895CF93DF93EC01888D88235F
:10047000C9F0EA89FB89808185FD05C0A889B98911
:100480008C9186FD0FC00FB607FCF5CF808185FFEC
:10049000F2CFA889B9898C9185FFEDCFCE010E945A
:1004A0001202E7CFDF91CF910895CF92DF92FF92B2
:1004B0000F931F93CF93DF931F92CDB7DEB76C01DD
:1004C00081E0D60158968C9358975B969C915B97E8
:1004D0005C968C915C97981307C05096ED91FC91B7
:1004E0005197808185FD2EC0F601038D10E00F5FCE
:1004F0001F4F0F731127F02EF601848DF81211C0D3
:100500000FB607FCF9CFD6015096ED91FC915197AB
:10051000808185FFF1CFC60169830E941202698143
:10052000EBCF838DE80FF11DE35AFF4F6083D601B7
:100530005B960C935B975296ED91FC91539780815B
:1005400080620CC0D6015696ED91FC91579760835E
:100550005096ED91FC91519780818064808381E079
:1005600090E00F90DF91CF911F910F91FF90DF905E
:10057000CF900895BF92CF92DF92EF92FF92CF93E8
:10058000DF93EC016A017B01B22EE889F98982E0F0
:100590008083411581EE580761057105A1F060E087
:1005A00079E08DE390E0A70196010E947705215044
:1005B00031094109510956954795379527952115D8
:1005C00080E1380798F0E889F989108260E874E8DA
:1005D0008EE190E0A70196010E9477052150310934
:1005E000410951095695479537952795EC85FD8525
:1005F0003083EE85FF852083188EEC89FD89B082DB
:10060000EA89FB89808180618083EA89FB89808116
:1006100088608083EA89FB89808180688083EA8999
:10062000FB8980818F7D8083DF91CF91FF90EF9058
:10063000DF90CF90BF9008951F920F920FB60F9248
:1006400011242F938F939F93EF93FF93E091520187
:10065000F09153018081E0915801F091590182FDA0
:1006600012C0908180915B018F5F8F7320915C013C
:10067000821751F0E0915B01F0E0EE5BFE4F958F49
:1006800080935B0101C08081FF91EF919F918F91D9
:100690002F910F900FBE0F901F9018951F920F92E1
:1006A0000FB60F9211242F933F934F935F936F9345
:1006B0007F938F939F93AF93BF93EF93FF9382E4C6
:1006C00091E00E941202FF91EF91BF91AF919F9133
:1006D0008F917F916F915F914F913F912F910F90EB
:1006E0000FBE0F901F90189582E491E00E94D701F1
:1006F00021E0892B09F420E0822F08951092450112
:100700001092440188EE93E0A0E0B0E080934601AF
:1007100090934701A0934801B09349018AE291E088
:10072000909343018093420185EC90E090934F01B8
:1007300080934E0184EC90E090935101809350019E
:1007400080EC90E0909353018093520181EC90E013
:10075000909355018093540182EC90E0909357015F
:100760008093560186EC90E0909359018093580154
:1007700010925B0110925C0110925D0110925E017B
:100780000895CF92DF92EF92FF920F931F93CF9332
:10079000DF937C016A01EB0100E010E00C151D0500
:1007A00071F06991D701ED91FC910190F081E02DFC
:1007B000C7010995892B19F00F5F1F4FEFCFC801B3
:1007C000DF91CF911F910F91FF90EF90DF90CF902D
:1007D00008950F931F93CF93DF93EC010E94300590
:1007E000688779878A879B87E881F9810680F78106
:1007F000E02DCE01099597FF15C00E9430050885B0
:1008000019852A853B85601B710B820B930B0C812C
:100810001D812E813F81601771078207930720F3A6
:100820008FEF9FEFDF91CF911F910F910895FC0102
:1008300044835583668377830895AF92BF92CF92A6
:10084000DF92EF92FF920F931F93CF93DF936C0190
:10085000790121153105B9F08A01C0E0D0E0A62E5A
:10086000BB24A7FCB094C6010E94E90397FD0EC00B
:100870008A159B0559F0F80181938F012196CE15B9
:10088000DF0589F703C080E090E001C0CE01DF9171
:10089000CF911F910F91FF90EF90DF90CF90BF907D
:1008A000AF900895FC01808191810C943706CF931D
:1008B000DF93EC0188819981009711F00E9437063F
:1008C000198218821D821C821B821A82DF91CF91AD
:1008D00008950F931F93CF93DF93EC018B016F5F0C
:1008E0007F4F888199810E94C606009731F09983D5
:1008F00088831B830A8381E001C080E0DF91CF9170
:100900001F910F910895CF93DF93EC018881998116
:10091000892B29F08A819B818617970760F4CE0185
:100920000E946904882341F08C819D81892B19F4F0
:10093000E881F981108281E0DF91CF910895EF92F3
:10094000FF920F931F93CF93DF93EC017B018A01FA
:10095000BA010E948304811104C0CE010E94570491
:1009600007C01D830C83B701888199810E94990774
:10097000CE01DF91CF911F910F91FF90EF900895DD
:10098000FC01118210821382128215821482611579
:10099000710559F0FB0101900020E9F7AF014150CA
:1009A0005109461B570B0C949F04089508950E940B
:1009B0003C050E94D6040E949800C4E0D2E00E9448
:1009C000CF002097E1F30E940402F9CF1F920F920B
:1009D0000FB60F9211242F933F938F939F93AF9352
:1009E000BF938091E0019091E101A091E201B0916B
:1009F000E3013091DF0123E0230F2D3720F401962E
:100A0000A11DB11D05C026E8230F0296A11DB11D31
:100A10002093DF018093E0019093E101A093E20134
:100A2000B093E3018091E4019091E501A091E6018A
:100A3000B091E7010196A11DB11D8093E40190934F
:100A4000E501A093E601B093E701BF91AF919F91BB
:100A50008F913F912F910F900FBE0F901F9018957F
:100A60002FB7F8946091E0017091E1018091E2016B
:100A70009091E3012FBF0895789484B5826084BD7E
:100A800084B5816084BD85B5826085BD85B5816092
:100A900085BDEEE6F0E0808181608083E1E8F0E0F2
:100AA0001082808182608083808181608083E0E821
:100AB000F0E0808181608083E1EBF0E08081846000
:100AC0008083E0EBF0E0808181608083EAE7F0E002
:100AD0008081846080838081826080838081816066
:100AE00080838081806880831092C1000895A1E294
:100AF0001A2EAA1BBB1BFD010DC0AA1FBB1FEE1F98
:100B0000FF1FA217B307E407F50720F0A21BB30BE2
:100B1000E40BF50B661F771F881F991F1A9469F75E
:100B200060957095809590959B01AC01BD01CF01BA
:100B30000895EE0FFF1F0590F491E02D0994CF93D7
:100B4000DF938230910510F482E090E0E091EA01B9
:100B5000F091EB0120E030E0A0E0B0E0309739F117
:100B60004081518148175907B8F04817590771F467
:100B700082819381109729F013969C938E931297FC
:100B80002CC09093EB018093EA0127C02115310519
:100B900031F04217530718F0A901DB0101C0EF0142
:100BA0009A01BD01DF010280F381E02DD7CF21152D
:100BB0003105F9F0281B390B2430310580F48A8186
:100BC0009B816115710521F0FB019383828304C031
:100BD0009093EB018093EA01FE01329644C0FE013E
:100BE000E20FF31F819391932250310939832883B7
:100BF0003AC02091E8013091E901232B41F4209182
:100C00000201309103013093E9012093E801209122
:100C10000001309101012115310541F42DB73EB796
:100C20004091040150910501241B350BE091E8012E
:100C3000F091E901E217F307A0F42E1B3F0B2817F0
:100C4000390778F0AC014E5F5F4F2417350748F045
:100C50004E0F5F1F5093E9014093E80181939193F8
:100C600002C0E0E0F0E0CF01DF91CF910895CF9393
:100C7000DF93009709F487C0FC0132971382128238
:100C8000C091EA01D091EB01209781F4208131815C
:100C9000280F391F8091E8019091E901821793078D
:100CA00079F5F093E901E093E8016DC0DE0120E001
:100CB00030E0AE17BF0750F412964D915C91139738
:100CC0009D014115510509F1DA01F3CFB383A283E8
:100CD00040815181840F951F8A179B0771F48D9174
:100CE0009C911197840F951F029691838083129691
:100CF0008D919C911397938382832115310529F45B
:100D0000F093EB01E093EA013EC0D9011396FC9306
:100D1000EE9312974D915D91A40FB51FEA17FB0753
:100D200079F480819181840F951F0296D9011196E3
:100D30009C938E938281938113969C938E931297AA
:100D4000E0E0F0E08A819B81009719F0FE01EC0160
:100D5000F9CFCE01029628813981820F931F20910D
:100D6000E8013091E9012817390769F4309729F42F
:100D70001092EB011092EA0102C013821282D0930A
:100D8000E901C093E801DF91CF910895A0E0B0E0C0
:100D9000ECECF6E00C94A407EC01CB01209719F4DD
:100DA0000E949F05B8C0FE01E60FF71F9E0122506A
:100DB0003109E217F30708F4ACC0D9010D911C9179
:100DC000119706171707B8F00530110508F49FC0F2
:100DD000A801445051094617570708F498C002501B
:100DE0001109061B170B019311936D937C93CF018F
:100DF0000E9437068CC05B01A01AB10A4E01800E1A
:100E0000911EA091EA01B091EB01612C712C60E080
:100E100070E0109709F449C0A815B905C9F5ED901F
:100E2000FC901197670142E0C40ED11CCA14DB0488
:100E300078F147018A189B08640142E0C40ED11C76
:100E40001296BC9012971396AC91B5E0CB16D104D4
:100E500040F0B282A38391828082D9018D939C93CA
:100E600009C00E5F1F4F0E0D1F1DF9011183008376
:100E7000EB2DFA2F6115710531F0DB011396FC9310
:100E8000EE93129744C0F093EB01E093EA013FC068
:100E90006D917C9111976616770608F43B01BD01B0
:100EA00012960D90BC91A02DB4CF6091E801709185
:100EB000E90168157905E9F468167906D0F44091DE
:100EC0000001509101014115510541F44DB75EB744
:100ED0006091040170910501461B570BE417F5075B
:100EE000C0F4F093E901E093E801F9019183808374
:100EF0000EC00E949F057C01009759F0A801BE0119
:100F00000E949007CE010E943706C70104C0CE019F
:100F100002C080E090E0CDB7DEB7EEE00C94C007F1
:100F2000FB01DC0102C001900D9241505040D8F706
:100F30000895FB01DC0101900D920020E1F7089576
:100F40002F923F924F925F926F927F928F929F92D9
:100F5000AF92BF92CF92DF92EF92FF920F931F93C7
:100F6000CF93DF93CDB7DEB7CA1BDB0B0FB6F89478
:100F7000DEBF0FBECDBF09942A88398848885F84B8
:100F80006E847D848C849B84AA84B984C884DF8029
:100F9000EE80FD800C811B81AA81B981CE0FD11D0D
:100FA0000FB6F894DEBF0FBECDBFED01089510E07F
:100FB000C6ECD0E004C0FE010E949B052296C83C0E
:080FC000D107C9F7F894FFCF37
:100FC8000000EC0180000101010101010A0800098B
:100FD800000A000B000C000D0002000300040005CD
:100FE800000600070000000000005502C103D701F9
:060FF800F001E2013302EA
:00000001FF
